:020000040000fa
:080000000002040000000000f2
:020000040000fa
:040008004c030000a5
:020000040000fa
:04000c004c030000a1
:020000040000fa
:040010004c0300009d
:020000040000fa
:040014004c03000099
:020000040000fa
:040018004c03000095
:020000040000fa
:04001c004c03000091
:020000040000fa
:040020004c0300008d
:020000040000fa
:040024004c03000089
:020000040000fa
:040028004c03000085
:020000040000fa
:04002c004c03000081
:020000040000fa
:040030004c0300007d
:020000040000fa
:040034004c03000079
:020000040000fa
:040038004c03000075
:020000040000fa
:04003c004c03000071
:020000040000fa
:040040004c0300006d
:020000040000fa
:040044004c03000069
:020000040000fa
:040048004c03000065
:020000040000fa
:04004c004c03000061
:020000040000fa
:040050004c0300005d
:020000040000fa
:04005400c8020000de
:020000040000fa
:040058000803000099
:020000040000fa
:04005c004c03000051
:020000040000fa
:040060004c0300004d
:020000040000fa
:040064004c03000049
:020000040000fa
:040068004c03000045
:020000040000fa
:04006c004c03000041
:020000040000fa
:040070004c0300003d
:020000040000fa
:040074004c03000039
:020000040000fa
:040078004c03000035
:020000040000fa
:04007c004c03000031
:020000040000fa
:040080004c0300002d
:020000040000fa
:040084004c03000029
:020000040000fa
:040088004c03000025
:020000040000fa
:04008c004c03000021
:020000040000fa
:040090004c0300001d
:020000040000fa
:040094004c03000019
:020000040000fa
:040098004c03000015
:020000040000fa
:04009c004c03000011
:020000040000fa
:0400a0004c0300000d
:020000040000fa
:0400a4004c03000009
:020000040000fa
:0400a8004c03000005
:020000040000fa
:0400ac004c03000001
:020000040000fa
:0400b0004c030000fd
:020000040000fa
:0400b4004c030000f9
:020000040000fa
:0400b8004c030000f5
:020000040000fa
:0400bc004c030000f1
:020000040000fa
:0400c0004c030000ed
:020000040000fa
:0400c4004c030000e9
:020000040000fa
:0400c8004c030000e5
:020000040000fa
:0400cc004c030000e1
:020000040000fa
:0400d0004c030000dd
:020000040000fa
:0400d4004c030000d9
:020000040000fa
:0400d8004c030000d5
:020000040000fa
:0400dc004c030000d1
:020000040000fa
:0400e0004c030000cd
:020000040000fa
:0400e4004c030000c9
:020000040000fa
:0400e8004c030000c5
:020000040000fa
:0400ec004c030000c1
:020000040000fa
:0400f0004c030000bd
:020000040000fa
:0400f4004c030000b9
:020000040000fa
:0400f8004c030000b5
:020000040000fa
:0400fc004c030000b1
:020000040000fa
:040100004c030000ac
:020000040000fa
:040104004c030000a8
:020000040000fa
:040108004c030000a4
:020000040000fa
:04010c004c030000a0
:020000040000fa
:040110004c0300009c
:020000040000fa
:040114004c03000098
:020000040000fa
:040118004c03000094
:020000040000fa
:04011c004c03000090
:020000040000fa
:040120004c0300008c
:020000040000fa
:040124004c03000088
:020000040000fa
:040128004c03000084
:020000040000fa
:04012c004c03000080
:020000040000fa
:040130004c0300007c
:020000040000fa
:040134004c03000078
:020000040000fa
:040138004c03000074
:020000040000fa
:04013c004c03000070
:020000040000fa
:040140004c0300006c
:020000040000fa
:040144004c03000068
:020000040000fa
:040148004c03000064
:020000040000fa
:04014c004c03000060
:020000040000fa
:040150004c0300005c
:020000040000fa
:040154004c03000058
:020000040000fa
:040158004c03000054
:020000040000fa
:04015c004c03000050
:020000040000fa
:040160004c0300004c
:020000040000fa
:040164004c03000048
:020000040000fa
:040208004c030000a3
:020000040000fa
:04020c004c0300009f
:020000040000fa
:040210004c0300009b
:020000040000fa
:040214004c03000097
:020000040000fa
:040218004c03000093
:020000040000fa
:04021c004c0300008f
:020000040000fa
:040220004c0300008b
:020000040000fa
:040224004c03000087
:020000040000fa
:040228004c03000083
:020000040000fa
:04022c004c0300007f
:020000040000fa
:040230004c0300007b
:020000040000fa
:040234004c03000077
:020000040000fa
:040238004c03000073
:020000040000fa
:04023c004c0300006f
:020000040000fa
:040240004c0300006b
:020000040000fa
:040244004c03000067
:020000040000fa
:040248004c03000063
:020000040000fa
:04024c004c0300005f
:020000040000fa
:040250004c0300005b
:020000040000fa
:040254004c03000057
:020000040000fa
:040258004c03000053
:020000040000fa
:04025c004c0300004f
:020000040000fa
:040260004c0300004b
:020000040000fa
:040264004c03000047
:020000040000fa
:040268004c03000043
:020000040000fa
:04026c004c0300003f
:020000040000fa
:040270004c0300003b
:020000040000fa
:040274004c03000037
:020000040000fa
:040278004c03000033
:020000040000fa
:04027c004c0300002f
:020000040000fa
:040280004c0300002b
:020000040000fa
:040284004c03000027
:020000040000fa
:040288004c03000023
:020000040000fa
:04028c004c0300001f
:020000040000fa
:040290004c0300001b
:020000040000fa
:040294004c03000017
:020000040000fa
:040298004c03000013
:020000040000fa
:04029c004c0300000f
:020000040000fa
:0402a0004c0300000b
:020000040000fa
:0402a4004c03000007
:020000040000fa
:0402a8004c03000003
:020000040000fa
:0402ac004c030000ff
:020000040000fa
:0402b0004c030000fb
:020000040000fa
:0402b4004c030000f7
:020000040000fa
:0402b8004c030000f3
:020000040000fa
:0402bc004c030000ef
:020000040000fa
:0402c0004c030000eb
:020000040000fa
:0402c4004c030000e7
:020000040000fa
:0402c8004c030000e3
:020000040000fa
:0402cc004c030000df
:020000040000fa
:0402d0004c030000db
:020000040000fa
:0402d4004c030000d7
:020000040000fa
:0402d8004c030000d3
:020000040000fa
:0402dc004c030000cf
:020000040000fa
:0402e0004c030000cb
:020000040000fa
:0402e4004c030000c7
:020000040000fa
:0402e8004c030000c3
:020000040000fa
:0402ec004c030000bf
:020000040000fa
:0402f0004c030000bb
:020000040000fa
:0402f4004c030000b7
:020000040000fa
:0402f8004c030000b3
:020000040000fa
:0402fc004c030000af
:020000040000fa
:040300004c030000aa
:020000040000fa
:040304004c030000a6
:020000040000fa
:040308004c030000a2
:020000040000fa
:04030c004c0300009e
:020000040000fa
:040310004c0300009a
:020000040000fa
:040314004c03000096
:020000040000fa
:040318004c03000092
:020000040000fa
:04031c004c0300008e
:020000040000fa
:040320004c0300008a
:020000040000fa
:040324004c03000086
:020000040000fa
:040328004c03000082
:020000040000fa
:04032c004c0300007e
:020000040000fa
:040330004c0300007a
:020000040000fa
:040334004c03000076
:020000040000fa
:040338004c03000072
:020000040000fa
:04033c004c0300006e
:020000040000fa
:040340004c0300006a
:020000040000fa
:040344004c03000066
:020000040000fa
:040348004c03000062
:020000040000fa
:04034c004c0300005e
:020000040000fa
:040350004c0300005a
:020000040000fa
:040354004c03000056
:020000040000fa
:040358004c03000052
:020000040000fa
:04035c004c0300004e
:020000040000fa
:040360004c0300004a
:020000040000fa
:040364004c03000046
:020000040000fa
:10040000efc020000e7f24000e01880000000000d5
:10041000000020000000e000020032000001200087
:1004200020028800140007009d0007000000e00083
:1004300003003a0080642000010020000200370021
:100440000000200001002000810f70000100320038
:1004500014000700000020000000e000020032004d
:1004600000000200000000008c05020000000000f7
:100470000040da000000fe004440a900c000200057
:100480000000e0000300320000002000a00188000e
:100490004440a800000006008a1f78008b1f7800e7
:1004a0000000060091018800800478000000eb0045
:1004b0001a003700e284440032a0b4009905ba0063
:1004c000e284440032a0b4009906ba00e2844400f9
:1004d00032a0b4000006eb00476fde00fd07b2005b
:1004e000636ce10003003a00ebff07000000eb0043
:1004f0000a003700606ce10004003a00005deb0088
:100500008b05e900fdff3e00040037006168e10053
:10051000010032000086eb000b00070019c7ba008b
:100520001905ba000e04e00003003a000a00e000da
:10053000e0ff3a0000000600fe07b2009e018800be
:100540008a047800f5ff3700395dba008b05e900b1
:100550000c003200295dba008b05e900080032006a
:100560000c00e00003003a00e284440032a0b40032
:10057000f5ff370019ddba008b05e900faff3a00f4
:100580008904e800e184440032a0b40000000600c1
:10059000809fbe00821f78000200fa0030118000a8
:1005a000004f780080c020001040780070c020000c
:1005b000104078000080fb009e80fb002010b000ff
:1005c0000001400020802000000041000108780068
:1005d00070c02000104078008040e80070c020000b
:1005e0000148780070c020001040780080c02000d2
:1005f000104078008040e80080c02000014878006a
:100600000080fa004f0178004f00be000040060055
:10061000809fbe000000fa0040a02000104078003b
:100620000004e00002003a009580a900170037009e
:1006300020a02000104078000080fb0080004000d7
:1006400020802000008040001000780020118800e9
:1006500020a02000104078008040e80020a020006a
:100660000148780020a020001040780040a0200021
:10067000104078008040e90040a020000148780048
:10068000601680000080ea00601688000080fa0092
:100690004f00be00004006000040da000000fe00ef
:1006a000000005008001780002003700b159780091
:1006b0000201e9000200e000fcff3a000000060031
:1006c00080007800010178003104e000fdff3a006d
:0806d0000000510000000600cb
:020000040000fa
:1006d80075610000727400005f3000000041000086
:0806e800424300004400000041
:020000040000fa
:1006f0000000fa0040042000401188000080fa0049
:10070000000006000000fa001002200040118800de
:100710000080fa00000006000800fa0010079800a8
:10072000220798003307980020802000000f7800ef
:100730009e007800a0402000008040008000eb0078
:10074000010878002e009000be00900002102e00dc
:1007500003002000820f5000838f580006003200f3
:1007600002202c0013002000820f5000838f5800bd
:100770000300320004003700ddff070004003700eb
:10078000e0ff0700020037000000eb004d003700db
:100790001e0078000020b0008040eb000148780087
:1007a0001e0078001020b0008040eb000148780067
:1007b0001e0078002020b0008040eb000148780047
:1007c0009e00780040402000008040008040eb0008
:1007d000014878009e0078005040200000804000d2
:1007e0008040eb00014878009e00780060402000c7
:1007f000008040008040eb000148780021e2a80022
:1008000021a2a9002182a9002162a8000111800073
:10081000f0cf2f00008060000011880020e2a900c6
:1008200020c2a90020a2a9002082a9002062a8005d
:100830000111800090ff2f000080600000118800ef
:100840002002a90023c2a9002362a9002322a90033
:100850002302a90011118000f0f32f000080600036
:100860001011880022a2a9002282a9002262a900f8
:100870002242a9002222a9002202a90041058000eb
:10088000f0ff28000080600000e0a0004005880024
:100890005105800080ff2f00008060000020a00034
:1008a0005005880022e2a90022c2a90023e2a90083
:1008b00023a2a9008580a9008560a9002342a80081
:1008c000208020000080fa00000006000200fa00ec
:1008d000000f7800001020000080fa0000000600e1
:1008e0000200fa00000f7800001020000080fa00db
:1008f000000006000200fa00000f78009e00780059
:100900006040200000804000104078000080fb0024
:100910000080fa00000006000200fa00000f7800d4
:100920001e0078002020b000104078000080fb00fe
:100930000080fa00000006000200fa00000f7800b4
:100940001e0078002020b000104078000080fb00de
:1009500001102000008050000080fa000000060016
:100960000400fa00000f7800214798001e0078006c
:100970002020b00010407800ff3ffc001e007800ef
:100980001020b000104078000080fb00ae409000c6
:100990008180fb001e017800000040000000410043
:1009a000010878001e0078001020b0001040780088
:1009b0008040e8001e0078001020b0000148780058
:1009c0001e0078001020b000104078001e00780053
:1009d0002020b000104078008040e8001e00780021
:1009e0002020b000014878000000fc009580a8009d
:1009f00000102700210020008b0007000080fa0073
:100a0000000006000400fa00100798000000000033
:100a10009e00900060402000008040001040780060
:100a20000004e000faff3200ff3ffc009e0090004f
:100a30004040200000804000104078000080fb0013
:100a40009e0090002010b00000004000610078007f
:100a5000004f78009e009000404020000080400041
:100a6000104078008040e8001e01900040402000c7
:100a700000004100014878009e00900040402000a6
:100a800000804000104078009e00900060402000f0
:100a900000804000104078008040e9001e01900076
:100aa0006040200000004100014878000000fc0088
:100ab0001e4078000080fa00000006000600fa00e0
:100ac000200798002e009000fdfe070010079800f8
:100ad0000000eb00000f7800090037002e009000a6
:100ae0001040780080407800004080009cff0700a4
:100af0001e0fe8002e0090000000e800200798007c
:100b00001e0090009e007800808f5000f3ff35009b
:100b10000080fa00000006005a02fa00e0032000fc
:100b2000303a8800213a8000f0f32f000080600006
:100b30000060a000203a8800213a800000fe2f00cb
:100b4000008060003000b300203a88004827ef00a2
:100b50003200200080072000a1092000337420000b
:100b6000804978008149780082497800103a8000f5
:100b7000000178000200a000600420007105200040
:100b800023742000804978008149780082497800e8
:100b900000000000113a8000000027008080600003
:100ba00000002300808f5000faff3a000000000090
:100bb000113a800000022000008060000000e00088
:100bc000fbff3200c822ef00cc22ef0002202c00f5
:100bd00013002000c0362800cffe07000040880028
:100be00010c4b300606f9a0010c6b300706f9a0013
:100bf0000040eb0000779a0020002000000f7800f2
:100c000000402200410f2000070007000e80e8008e
:100c10005200200031372800a2fe07000e80e800b5
:080c2000a6ff0700eeff3700fc
:020000040000fa
:100c2800f03fb1000180b10006003500ee03090075
:100c380000000000403fb1000180b100fbff3d0013
:100c48001000b000203fb00002003500008009000d
:080c580000000000000006008e
:020000040000fa
:100c60000200fa00000f78000400370000e82300bb
:100c700001002000ecff07001e0fe9001e007800b5
:100c80000000e000f9ff3a000080fa0000000600d2
:020000040000fa
:100c9000020800000c040000000000000008000032
:0c0ca00002000000000000000000000046
:020000040000fa
:0200000401f009
:04000c008000000070
:020000040000fa
:0200000401f009
:040010006500000087
:00000001FF
