:020000040000fa
:080000000002040000000000f2
:020000040000fa
:0400080050030000a1
:020000040000fa
:04000c00500300009d
:020000040000fa
:040010005003000099
:020000040000fa
:040014005003000095
:020000040000fa
:040018005003000091
:020000040000fa
:04001c00500300008d
:020000040000fa
:040020005003000089
:020000040000fa
:040024005003000085
:020000040000fa
:040028005003000081
:020000040000fa
:04002c00500300007d
:020000040000fa
:040030005003000079
:020000040000fa
:040034005003000075
:020000040000fa
:040038005003000071
:020000040000fa
:04003c00500300006d
:020000040000fa
:040040005003000069
:020000040000fa
:040044005003000065
:020000040000fa
:040048005003000061
:020000040000fa
:04004c00500300005d
:020000040000fa
:040050005003000059
:020000040000fa
:04005400cc020000da
:020000040000fa
:040058000c03000095
:020000040000fa
:04005c00500300004d
:020000040000fa
:040060005003000049
:020000040000fa
:040064005003000045
:020000040000fa
:040068005003000041
:020000040000fa
:04006c00500300003d
:020000040000fa
:040070005003000039
:020000040000fa
:040074005003000035
:020000040000fa
:040078005003000031
:020000040000fa
:04007c00500300002d
:020000040000fa
:040080005003000029
:020000040000fa
:040084005003000025
:020000040000fa
:040088005003000021
:020000040000fa
:04008c00500300001d
:020000040000fa
:040090005003000019
:020000040000fa
:040094005003000015
:020000040000fa
:040098005003000011
:020000040000fa
:04009c00500300000d
:020000040000fa
:0400a0005003000009
:020000040000fa
:0400a4005003000005
:020000040000fa
:0400a8005003000001
:020000040000fa
:0400ac0050030000fd
:020000040000fa
:0400b00050030000f9
:020000040000fa
:0400b40050030000f5
:020000040000fa
:0400b80050030000f1
:020000040000fa
:0400bc0050030000ed
:020000040000fa
:0400c00050030000e9
:020000040000fa
:0400c40050030000e5
:020000040000fa
:0400c80050030000e1
:020000040000fa
:0400cc0050030000dd
:020000040000fa
:0400d00050030000d9
:020000040000fa
:0400d40050030000d5
:020000040000fa
:0400d80050030000d1
:020000040000fa
:0400dc0050030000cd
:020000040000fa
:0400e00050030000c9
:020000040000fa
:0400e40050030000c5
:020000040000fa
:0400e80050030000c1
:020000040000fa
:0400ec0050030000bd
:020000040000fa
:0400f00050030000b9
:020000040000fa
:0400f40050030000b5
:020000040000fa
:0400f80050030000b1
:020000040000fa
:0400fc0050030000ad
:020000040000fa
:0401000050030000a8
:020000040000fa
:0401040050030000a4
:020000040000fa
:0401080050030000a0
:020000040000fa
:04010c00500300009c
:020000040000fa
:040110005003000098
:020000040000fa
:040114005003000094
:020000040000fa
:040118005003000090
:020000040000fa
:04011c00500300008c
:020000040000fa
:040120005003000088
:020000040000fa
:040124005003000084
:020000040000fa
:040128005003000080
:020000040000fa
:04012c00500300007c
:020000040000fa
:040130005003000078
:020000040000fa
:040134005003000074
:020000040000fa
:040138005003000070
:020000040000fa
:04013c00500300006c
:020000040000fa
:040140005003000068
:020000040000fa
:040144005003000064
:020000040000fa
:040148005003000060
:020000040000fa
:04014c00500300005c
:020000040000fa
:040150005003000058
:020000040000fa
:040154005003000054
:020000040000fa
:040158005003000050
:020000040000fa
:04015c00500300004c
:020000040000fa
:040160005003000048
:020000040000fa
:040164005003000044
:020000040000fa
:04020800500300009f
:020000040000fa
:04020c00500300009b
:020000040000fa
:040210005003000097
:020000040000fa
:040214005003000093
:020000040000fa
:04021800500300008f
:020000040000fa
:04021c00500300008b
:020000040000fa
:040220005003000087
:020000040000fa
:040224005003000083
:020000040000fa
:04022800500300007f
:020000040000fa
:04022c00500300007b
:020000040000fa
:040230005003000077
:020000040000fa
:040234005003000073
:020000040000fa
:04023800500300006f
:020000040000fa
:04023c00500300006b
:020000040000fa
:040240005003000067
:020000040000fa
:040244005003000063
:020000040000fa
:04024800500300005f
:020000040000fa
:04024c00500300005b
:020000040000fa
:040250005003000057
:020000040000fa
:040254005003000053
:020000040000fa
:04025800500300004f
:020000040000fa
:04025c00500300004b
:020000040000fa
:040260005003000047
:020000040000fa
:040264005003000043
:020000040000fa
:04026800500300003f
:020000040000fa
:04026c00500300003b
:020000040000fa
:040270005003000037
:020000040000fa
:040274005003000033
:020000040000fa
:04027800500300002f
:020000040000fa
:04027c00500300002b
:020000040000fa
:040280005003000027
:020000040000fa
:040284005003000023
:020000040000fa
:04028800500300001f
:020000040000fa
:04028c00500300001b
:020000040000fa
:040290005003000017
:020000040000fa
:040294005003000013
:020000040000fa
:04029800500300000f
:020000040000fa
:04029c00500300000b
:020000040000fa
:0402a0005003000007
:020000040000fa
:0402a4005003000003
:020000040000fa
:0402a80050030000ff
:020000040000fa
:0402ac0050030000fb
:020000040000fa
:0402b00050030000f7
:020000040000fa
:0402b40050030000f3
:020000040000fa
:0402b80050030000ef
:020000040000fa
:0402bc0050030000eb
:020000040000fa
:0402c00050030000e7
:020000040000fa
:0402c40050030000e3
:020000040000fa
:0402c80050030000df
:020000040000fa
:0402cc0050030000db
:020000040000fa
:0402d00050030000d7
:020000040000fa
:0402d40050030000d3
:020000040000fa
:0402d80050030000cf
:020000040000fa
:0402dc0050030000cb
:020000040000fa
:0402e00050030000c7
:020000040000fa
:0402e40050030000c3
:020000040000fa
:0402e80050030000bf
:020000040000fa
:0402ec0050030000bb
:020000040000fa
:0402f00050030000b7
:020000040000fa
:0402f40050030000b3
:020000040000fa
:0402f80050030000af
:020000040000fa
:0402fc0050030000ab
:020000040000fa
:0403000050030000a6
:020000040000fa
:0403040050030000a2
:020000040000fa
:04030800500300009e
:020000040000fa
:04030c00500300009a
:020000040000fa
:040310005003000096
:020000040000fa
:040314005003000092
:020000040000fa
:04031800500300008e
:020000040000fa
:04031c00500300008a
:020000040000fa
:040320005003000086
:020000040000fa
:040324005003000082
:020000040000fa
:04032800500300007e
:020000040000fa
:04032c00500300007a
:020000040000fa
:040330005003000076
:020000040000fa
:040334005003000072
:020000040000fa
:04033800500300006e
:020000040000fa
:04033c00500300006a
:020000040000fa
:040340005003000066
:020000040000fa
:040344005003000062
:020000040000fa
:04034800500300005e
:020000040000fa
:04034c00500300005a
:020000040000fa
:040350005003000056
:020000040000fa
:040354005003000052
:020000040000fa
:04035800500300004e
:020000040000fa
:04035c00500300004a
:020000040000fa
:040360005003000046
:020000040000fa
:040364005003000042
:020000040000fa
:10040000cfc220000e7f24000e01880000000000f3
:10041000000020000000e000020032000001200087
:1004200020028800140007009f0007000000e00081
:1004300003003a00a07c20000100200002003700e9
:100440000000200001002000810f70000100320038
:1004500014000700000020000000e000020032004d
:100460000000020000000000ca520200000000006c
:100470000040da000000fe004440a90020042000f3
:100480000000e0000300320000002000a00188000e
:100490004440a800000006008a1f78008b1f7800e7
:1004a0000000060091018800800478000000eb0045
:1004b0001a003700e284440032a0b4009905ba0063
:1004c000e284440032a0b4009906ba00e2844400f9
:1004d00032a0b4000006eb00476fde00fd07b2005b
:1004e000636ce10003003a00ebff07000000eb0043
:1004f0000a003700606ce10004003a00005deb0088
:100500008b05e900fdff3e00040037006168e10053
:10051000010032000086eb000b00070019c7ba008b
:100520001905ba000e04e00003003a000a00e000da
:10053000e0ff3a0000000600fe07b2009e018800be
:100540008a047800f5ff3700395dba008b05e900b1
:100550000c003200295dba008b05e900080032006a
:100560000c00e00003003a00e284440032a0b40032
:10057000f5ff370019ddba008b05e900faff3a00f4
:100580008904e800e184440032a0b40000000600c1
:100590007003040000000000809fbe00821f7800ee
:1005a0000200fa0030118000004f7800c0c0200027
:1005b00010407800b0c02000104078000080fb00a0
:1005c0009e80fb002010b0000001400060802000f1
:1005d0000000410001087800b0c020001040780001
:1005e0008040e800b0c0200001487800b0c0200082
:1005f00010407800c0c02000104078008040e80023
:10060000c0c02000014878000080fa004f01780047
:100610004f00be0000400600809fbe000000fa00b0
:1006200080a02000104078000004e00002003a00a2
:100630009580a9001700370060a0200010407800c6
:100640000080fb00800040006080200000804000af
:10065000100078002011880060a020001040780071
:100660008040e80060a020000148780060a02000e1
:100670001040780080a02000104078008040e90001
:1006800080a0200001487800601680000080ea0009
:10069000601688000080fa004f00be00004006008f
:1006a0000040da000000fe00000005008001780034
:1006b00002003700815978000201e9000200e000e1
:1006c000fcff3a000000060080007800010178007d
:1006d0003104e000fdff3a00000051000000060078
:1006e000881f78000204780008017800fd000700e8
:1006f000080040004f047800000006000000fa00e7
:10070000881f780000047800ea8157003fb99700fd
:100710008800780000372000070007000000e00094
:10072000020035008040eb00017478004f0478002f
:100730000080fa00000006006200fa00889fbe00f8
:100740008a1f780000057800810478000204780090
:100750008300780080f92f000f004000b0010700ef
:100760009a979f00a9979f000000eb00b09f9f0001
:100770001885fb008a04fb000a05ea004f55de00dd
:1007800050022000808f54000d003200e10f550010
:100790000b003a000a017800880078002f9097003b
:1007a0009f91970003000100a0979f000000e000c8
:1007b0008e0032003f9897000000e800b09f9f0035
:1007c0000a04440050022000808f540004003200cc
:1007d0000900e000e6ff3a003f98970084003700e8
:1007e0000000eb00909f9f00809f9f00f0979f006c
:1007f000e0979f00d0979f00c0979f0007003700a9
:1008000061c220000100500000004000a1c1200092
:1008100061007800df98970001007000d09f9f0072
:100820008804780009047800384578008a00fb00c5
:1008300060c22000b20007000000e000f0ff3a00b4
:10084000a1c2b300814f55000e003a00cf88970037
:100850000180e900c08f9f0010007800c09f9f00ba
:100860000000e00005003d000000ea00c09f9f007e
:100870005f9897000020a000d09f9f000904e80027
:100880000f003700c09f9f000000eb0005003700fd
:10089000f2ff2700820f5000020032006a01b90007
:1008a000028040000904780088047800b900fb0049
:1008b0000103b100e98f5000f5ff3600c09f9f0093
:1008c000e0c2b300984f1000020032000080eb003d
:1008d00019003700a0c2b300d84f100007003a003b
:1008e000cf8897000180e900c08f9f00100078003a
:1008f000a09f9f000804e800100037000000eb00f4
:10090000a09f9f008800780005003700f3ff2700b4
:10091000830f5000020032006a02b9000400410057
:1009200001047800880078003101fb000203b10067
:10093000e90f5100f5ff3600a09f9f009844780012
:100940008900fb0020c120006d0007000000e000ce
:10095000020032000804e800010037008044eb0088
:10096000c97f9f0080c6b30080cf540004003a00c6
:1009700098cf14000a003a00664050000600370085
:10098000c0c6b30080cf540005003a0098cf1400d1
:1009900003003a0065404000c07f9f000804e80063
:1009a0001801fb00e3fb2f008f81410081f92f002c
:1009b0008f804000a0f92f000f00400010000700ba
:1009c0000000e00009003a00e1fb2f008f804000aa
:1009d000a0f92f000f004000550007000000e000c4
:1009e000020035000804e80061ff37000080eb00da
:1009f0004f0578004f04be000080fa00000006009a
:100a0000889fbe008a1f78000004780030c5b300bc
:100a1000804f51000800320030c7b300804f5100b2
:100a20000500320051c2b30078009000814f5100a0
:100a300017003a00140037001180e90080087800a0
:100a4000100578006a049800d80c90000900e000b6
:100a500004003d000a0078001bff070080047800b6
:100a600007003700090178008000eb000a007800d9
:100a7000120007000000e000010032008a0450006c
:100a8000190c9800090037008271780005003700c2
:100a9000808141000204e00001003a000141780039
:100aa000824978000000e800700498000000eb0024
:100ab0004f0578004f04be00000006000300370019
:100ac000b0cf1000050032000201e900800178007b
:100ad0000200e000faff3a00000005000300780081
:100ae000000006008001780002003700b15978004c
:100af0000201e9000200e000fcff3a0000000600ed
:100b0000020037000304e000060032000001780014
:100b100002007800b041780081cf5100f9ff3a001f
:100b2000010037000001eb00020078000000060021
:100b30000400fa00889fbe008a9fbe008c1f7800c8
:100b40000004780001067800f80d9000780090000d
:100b50008085550008089000808555001808900091
:100b60008085550028089000808555003808900041
:100b700080855500480890008085550000022200bd
:100b800090bf9f0000032300a0bf9f0008109000ab
:100b90000028a30015003a000b00e0001300340009
:100ba0000b0578008a047800e20f5500010036003a
:100bb00029002000c801900009017800ee8057004c
:100bc0005800900003000100500498000000e0006d
:100bd0008c0032006808900009004000600c98000a
:100be000090555004240a900eeff3c007801900045
:100bf0000200e0000c003400c80190008c00780076
:100c00005800900003000100500498008080eb0021
:100c10000000e0007c003200e808900078009000be
:100c200000804000600c9800880c90000900e000f3
:100c30001100340009057800e28f540001003600ed
:100c40002a002000c80190000a017800ec805700bb
:100c50005800900003000100500498000000e000dc
:100c600068003200680890000a004000600c98009c
:100c70008a845400edff3700180990000200e0005c
:100c80000c003400c8019000e8009000580090006b
:100c900003000100500498008080eb000000e00099
:100ca00059003200e80890001808900000804000c9
:100cb000600c9800a80c90000900e00011003400be
:100cc00009057800e28f5400010036002a00200058
:100cd000c80190000a017800ec805700580090008d
:100ce00003000100500498000000e00045003200bd
:100cf000680890000a004000600c98008a84540044
:100d0000edff3700380990000200e0000e003400cb
:100d1000e80090001808900080804000c801900012
:100d20005800900003000100500498008080eb0000
:100d30000000e00034003200e8089000380890001d
:100d400000804000600c9800c80c90000900e00092
:100d50001100340009057800e28f540001003600cc
:100d60002a002000c80190000a017800ec8057009a
:100d70005800900003000100500498000000e000bb
:100d800020003200680890000a004000600c9800c3
:100d90008a845400edff3700081090008000eb00bb
:100da0000028a300180032000b00e00016003400f9
:100db0008b04780009057800e28f540001003600aa
:100dc0002a002000c80190000a017800ee80570038
:100dd0005800900003000100500498000000e0005b
:100de00008003200680890000a004000600c98007b
:100df0008a8454004240a900eeff3c008000eb00d2
:100e0000010037008080eb00010078004f06780079
:100e10004f05be004f04be000080fa00000006002f
:080e2000010878000000060043
:020000040000fa
:100e280049200000616d000020610000207300006f
:100e380074720000696e000067200000796f00007e
:100e480075200000737400006f7200006564000074
:100e5800206900006e200000746800006520000012
:100e680045450000505200004f4d0000007500003d
:100e780061720000745f00003000000062750000bd
:100e8800666600006572000020730000747200003e
:100e9800696e0000673a00005b250000735d000082
:040ea8000a0000003c
:020000040000fa
:100eac000000fa00ad2207000068ef000080fa0095
:100ebc00000006000c00fa0030079800410798006b
:100ecc0052079800be009000010f7800ce009000f1
:100edc0011079800ce0090005e009000008040004a
:100eec0020079800090037001e00900052230700cd
:100efc00804078001e007800014878001e009000a9
:100f0c000000e800100798001e0fe8009e009000fb
:100f1c002e009000808f5000f3ff39000080fa0003
:100f2c00000006000a00fa0020079800310798001c
:100f3c0042079800be009000010f78004e00900010
:100f4c001e00400010079800090037001e007800b2
:100f5c00104078000080fb00ae009000a923070031
:100f6c001e0fe8002e0090000000e80020079800fb
:100f7c001e0090009e007800808f5000f3ff390017
:080f8c000080fa0000000600dd
:020000040000fa
:100f94000008000002000000000000000208000039
:100fa400020000000000000004080000020000002d
:100fb4000200000014870000060800000c04000072
:100fc40000000000120c00001a00000002000000e3
:100fd400686a6c00747a4c00000001000002000092
:100fe4000400080000100000000020002b2d230046
:080ff4003000000000000000c5
:020000040000fa
:109000000200fa00100280004500de0067406000a8
:109010000080fb00000f780011028000000e20008d
:10902000010070001002880000000000c205070067
:109030001e00780000407800674060000080fb0060
:10904000670060004500dd0012028000f1f12f0092
:109050008100610001007000100288000000000023
:109060000080fa00000006000c00fa00004f980093
:10907000114f9800224f980032c0bf000080fb00c3
:109080001007980002802000030020000e48900086
:109090000080fb004e00dd008000eb00020140007c
:1090a000838148001e4890000080fb004a00dd00dc
:1090b0008000eb0002004000838048004008de0092
:1090c0000040780032e0b70000802000010020005e
:1090d000800078001e4890000081fb000e48900040
:1090e0000080fb004400dd00000041004a00dd007c
:1090f00000804000200798002e0090008a0507009d
:10910000604798002e4890000080fb00f30f50004d
:109110000a003200f40f50000e003200f20f50002f
:1091200012003a006e4090000080fb006400600076
:109130004280de00004f78000f0037006e40900044
:109140000080fb00680060004380de00004f780074
:10915000090037006e4090000080fb007000600046
:109160004480de00004f7800030037000040eb0031
:10917000004f7800000000001e00900000407800c2
:1091800032e0b7001e80fb000080fa0000000600fd
:109190000600fa00404798005147980032c0bf00cf
:1091a0000080fb00000f780020042400003b8800b2
:1091b0000080200001002000800078005e409000c8
:1091c0000081fb004e4090000080fb004400dd0069
:1091d000000041004a00dd000080400010079800b8
:1091e00002802000030020004e4090000080fb0021
:1091f0004e00dd008000eb0002014000838148004a
:109200005e4090000080fb004a00dd008000eb0023
:1092100002004000838048004008de0000407800e3
:1092200032e0b7009e0090001e009000510507003c
:1092300073ff07001e0078000040780032e0b7009e
:109240000080fa00000006000c00fa00204f980091
:109250000000eb00000f780032c0bf000080fb0070
:10926000300798000000eb0010079800030037005b
:109270001e0090000000e800100798001e009000fb
:10928000ef0f500008003c001e00900000407800e6
:1092900032c1b300804078002e48900072ff070072
:1092a000e10f5000f2ff3200028020000300200096
:1092b0002e4890000080fb004e00dd008000eb0097
:1092c00002014000838148001e0090004a00dd003a
:1092d0008000eb0002004000838048004008de0070
:1092e0000040780032e0b70000802000010020003c
:1092f000800078002e4890000080fb004401dd00d3
:109300001e009000000041004a00dd000080400087
:10931000200798001e8fe8002e0090000080e800d3
:10932000200798002e009000ff040700004f9800cf
:10933000f03f20009e007800808f500003003c002a
:109340000e489000e14f4000f2ff3a00004020003c
:109350009e007800808f500002003a000000eb0071
:10936000000f78003e0090000040780032e0b70027
:109370001e0078000080fa00000006001400fa00c9
:10938000881f78002057980032c0bf000080fb0083
:10939000600798000000eb00000f78000100370024
:1093a0001e0fe8001e007800ef0f500008003c0080
:1093b0001e0078000040780032c1b3008040780081
:1093c0002e50900028ff0700e10f5000f4ff3200fc
:1093d0001e007800f00f500006003a006e0090006a
:1093e0000040780032e0b7000068a800300020009c
:1093f0005a0137001e00e800100798001e00900078
:10940000f00f500014003a000000eb001007980025
:10941000120037001e0090000000e80010079800be
:109420001e009000f00f500002003a000000eb0018
:10943000100798001e0090009e0f500007003a0091
:109440006e0090000040780032e0b7000028a800cd
:109450001000200041013700000000001e009000b5
:109460000040780042c1b300804078002e50900048
:10947000fdfe07000000e000e6ff32000280200051
:10948000030020002e5090000080fb004e00dd0005
:109490008000eb0002014000838148001e00900024
:1094a0004a00dd008000eb0002004000838048009d
:1094b0004008de000040780032e0b7000080200065
:1094c00001002000800078002e5090000080fb00fa
:1094d0004401dd001e009000000041004a00dd0054
:1094e00000804000200798002e50900056ff070093
:1094f0000000e000010032000048a80001802000c8
:1095000091407800614f98000008a9000000eb002e
:109510005007980010002400003b8800ae00900027
:109520000080eb0093040700ae009000f00f2000d5
:109530008e0407002e0090000080e80020079800ad
:109540000040eb00604798005e0090000000e800db
:1095500050079800340037002e5090008080fb00a8
:10956000f00f20000088b900800078006e40900065
:109570000080fb0000804000b20107004007980017
:1095800000408000610060000000e0000200320046
:109590000008a9000d0037004e009000ae009000ba
:1095a000740407006e4090000080fb00ae00900045
:1095b0006e0407002e0090000080e800200798004d
:1095c0005e0090000000e800500798006e40900098
:1095d0000040e800604798000c003700ae009000a3
:1095e0000080eb0063040700ae009000f00f200045
:1095f0005e0407002e0090000080e800200798001d
:109600005e0090000000e800500798006e40900057
:10961000e14f400004003a00de009000f00320001b
:10962000808f5000edff34006e409000e14f40000d
:1096300004003200de009000f0032000808f500014
:10964000c5ff34006efe07000000eb0050079800d5
:109650006e409000e14f4000f3ff3a00ee4890006a
:1096600002802000014978000280200003002000d1
:109670002e5090000080fb004e00dd008000eb00cb
:1096800002014000838148001e0090004a00dd0076
:109690008000eb0002004000838048004008de00ac
:1096a0000040780032e0b700008020000100200078
:1096b000800078002e5090000080fb004401dd0007
:1096c0001e009000000041004a00dd0000804000c4
:1096d0000080e800200798002e009000ae00900067
:1096e0008100e800210798000f04070060479800f8
:1096f0002e009000ae0090008100e8002107980045
:109700000b040700400798001e0037002e50900001
:109710008080fb00f00f20000088b90080007800f6
:109720006e4090000080fb00008040004501070073
:10973000ce009000810f5000060032006e009000b5
:109740000040780032e0b70000e8a8007000200078
:10975000820037002e009000ae0090008100e800eb
:1097600021079800f0030700604798002e00900042
:10977000ae0090008100e80021079800ec0307008c
:10978000400798006e409000e14f4000dfff3a0034
:109790000080200001002000800078002e50900002
:1097a0000080fb004401dd001e0078000000410045
:1097b0004a00dd0000804000000f9800008020007b
:1097c00001002000800078002e5090000080fb00f7
:1097d0004401dd001e009000000041004a00dd0051
:1097e0000080400020079800028020000300200035
:1097f0002e5090000080fb004e00dd008000eb004a
:1098000002014000838148001e0078004a00dd000c
:109810008000eb0002004000838048004008de002a
:109820000040780032e0b7000e089000c003070047
:10983000400798000e089000bb030700604798009f
:109840001e0090000000e00003003a004e0090006f
:109850000000e80040079800ce009000200620009d
:10986000808f5000050036000028a800ee409000d0
:10987000f0ceb30000c06000604798000280200076
:10988000030020002e5090000080fb004e00dd0001
:109890008000eb0002014000838148001e00900020
:1098a0004a00dd008000eb00020040008380480099
:1098b0004008de000040780032e0b70030002400ad
:1098c000003b88006e4090000080fb00ae009000de
:1098d000a60307004e009000ae009000a50307000d
:1098e000c7fd07006e4090000084fb002e00900032
:1098f0008d030700800f540006003a002e009000f0
:109900008b030700800078004e009000808f50008d
:10991000060032006e0090000040780032e0b70090
:1099200000e8a800700020000c0037001e0078003e
:1099300000407800804078002e50900014fe070010
:109940006e0090000040780032e0b70000408000d8
:109950000000d100614060000080fb004f047800ef
:109960000080fa00000006000c00fa0032c0bf00c0
:109970000080fb00300798000080200001002000dc
:109980004008de000040780032e0b7000040eb0005
:1099900040479800a50037000040eb00004f7800da
:1099a0000040eb00104798000000eb0040079800d3
:1099b0000000eb0010079800030037001e00900025
:1099c0000000e800100798001e009000ef0f500004
:1099d00008003e001e0090000040780042c1b30025
:1099e000804078004e4090009ffd07000000e0009e
:1099f000f2ff32001e009000f00f500006003a0007
:109a00003e0090000040780032e0b7000028a80037
:109a100010c0b300890037000000eb001007980069
:109a20000c0037001e0090000040780032c1b300e7
:109a3000804078004e4090008bfd07000000e00061
:109a400001003a001e4fe8001e0090000000e800f0
:109a5000100798001e009000ef0f5000f1ff360035
:109a60001e4078000004e00025003a008040eb0032
:109a70004e409000c6fd0700028020000300200039
:109a80004e4090000080fb004e00dd008000eb00a7
:109a900002004000838048004008de00004078005b
:109aa00032e0b70000802000010020008000780034
:109ab0004e4090000080fb004e00dd000080400022
:109ac0005007980030002400003b88005e009000a2
:109ad000800078000000eb00260307005e00900085
:109ae00080007800300f20002003070044fd0700ad
:109af0003e0090000040780032e0b7004800370098
:109b00001e407800e14f500004003a003e009000f3
:109b10000040780032e0b700410037001e40780076
:109b2000e24f500038003a0032c1b300f1c0b30038
:109b30004e4090004cfd07000000e0000b003a0092
:109b400032c1b3008040eb004e40900046fd07005c
:109b50000000e00005003a00f00020001007980027
:109b60000040eb00104798001a0037000000eb009f
:109b700010079800030037001e0090000000e80066
:109b8000100798001e0090000040780032c1b3001a
:109b9000804078004e40900033fd0700e10f5000f8
:109ba00003003a001e009000ef0f5000f2ff360055
:109bb0001e009000004078000040e8001047980028
:109bc0001e409000f04f500002003a000040eb00b1
:109bd000104798009e4090004e4090006cfd07009a
:109be0004e40900098fd07000000e00002003a009f
:109bf0004e409000e1fd07003e00900000407800dc
:109c000032e0b700060037003e00900000407800c8
:109c100032e0b70000c8a80060c0b30007003700fa
:109c20004e4090000040e800404798004e409000b1
:109c30000004e00058ff32000040eb000080fa0012
:109c4000000006000e00fa0060079800ee00900089
:109c5000e00f2000808f50000300360000a8a8000d
:109c60000080eb0068003700ee009000100828002c
:109c70000008b8004708de006047980032c0bf0007
:109c80000080fb00400798000000eb00000f780008
:109c9000010037001e0fe8001e007800ef0f500093
:109ca00008003e001e0078000040780032c1b3007a
:109cb000804078006e409000ebfc0700e10f500000
:109cc000f4ff32001e007800f00f500006003a004a
:109cd0004e0090000040780032e0b70000c8a800b5
:109ce0000080eb00480037000280200003002000c5
:109cf0006e4090000080fb004e00dd008000eb0015
:109d000002014000838148001e0078004a00dd0007
:109d10008000eb0002004000838048004008de0025
:109d20000040780032e0b7000080200001002000f1
:109d3000800078006e4090000080fb004400dd0051
:109d40001e0040000000e8004a00dd0000804000e6
:109d50000080e900100798000020200020079800ec
:109d60001e00900070020700500798001e0090002f
:109d70000080e900100798002e0090000000e90024
:109d8000200798002e0090000000e0000b00320039
:109d90006e019000100828000010b8004708de008f
:109da000f10f20000180b900000078000000510090
:109db000de009000810f5000e9ff3a002e00900075
:109dc0000000e00006003a000008a8004e009000e5
:109dd0000040780032e0b7000080eb000a00370056
:109de0001e0090000080e800100798001e00900000
:109df0004f020700500798004e0090000040780086
:109e000032e0b7005e0090000080fa00000006001b
:109e10001200fa0070079800010f98008e08900059
:109e2000e00f2000808f50000300360000a8a8003b
:109e300050c0b300b90037008e0890001008280009
:109e40000008b8004708de001007980032c0bf00c5
:109e50000080fb002007980030002400003b8800b1
:109e60000000eb00000f7800010037001e0fe80033
:109e70001e007800ef0f500008003c001e00780024
:109e8000804078001e0090000040780032c1b3008e
:109e900075fc0700e10f5000f4ff32001e0078004f
:109ea000f00f500006003a002e00900000407800ad
:109eb00032e0b70000c8a80060c0b30097003700c8
:109ec00002802000030020001e0090004e00dd00f4
:109ed0008000eb0002014000838148001e007800f2
:109ee0004a00dd008000eb00020040008380480053
:109ef0004008de000040780032e0b700008020001b
:109f000001002000800078001e0090004401dd0068
:109f10001e007800000041004a00dd000080400083
:109f2000300798000180200091407800014f980090
:109f30000e08900043ff0700fe009000810f5000c4
:109f40000c003a0000408000610060000000e0006a
:109f500008003a002e0090000040780032e0b70080
:109f60008e48900002802000014978000040eb00fc
:109f70006a0037008e489000028020000149780076
:109f80001e00900000407800affc070050079800ca
:109f90005e0090000000e00006003a002e009000f5
:109fa0000040780032e0b7000088a80040c0b3004d
:109fb0005a003700be0090005e0090000080400014
:109fc000300798007e009000be009000e901070075
:109fd0000e099000100828000010b8004708de00a5
:109fe000f10f20000180b90000007800000051004e
:109ff000be009000dd01070001fc0700000000002a
:10a00000000000003e009000c901070000407800f9
:10a01000404f98004e4890008080fb007e019000e9
:10a02000f00f200000006100808f50000600320019
:10a030002e0090000040780032e0b70000e8a80051
:10a0400070c0b300350037003e009000b601070035
:10a0500000407800404f98004e4890008081fb00ff
:10a060000e099000100828000010b8004708de0014
:10a07000f10f20000180b9000000780000005100bd
:10a08000808f5100060032002e00900000407800c2
:10a0900032e0b70000e8a80070c0b3001f0037002e
:10a0a0003e0090000000e800300798003e0090005d
:10a0b0009f0107004800de0000407800404f9800f4
:10a0c0004e4890008080fb007e0090004800de003b
:10a0d000808f5000060032002e0090000040780073
:10a0e00032e0b70000e8a80070c0b3000b003700f2
:10a0f000de009000e03f2000808f500003003a0017
:10a100001e009000004078009cfc07002e0090008c
:10a110000040780032e0b7000040eb000080fa0019
:10a12000000006000000fa004004200040118800f2
:10a130000080fa00000006000000fa001002200073
:10a14000401188000080fa00000006000800fa00b4
:10a1500010079800220798003307980060802000bd
:10a16000000f78009e007800a04020000080400092
:10a170008000eb00010878002e009000be009000e7
:10a1800002102e0003002000820f5000838f580021
:10a190000600320002202c0013002000820f500025
:10a1a000838f58000300320004003700ddff0700f2
:10a1b00004003700e0ff0700020037000000eb005a
:10a1c000600037001e0078000020b0008040eb00e7
:10a1d000014878001e0078001020b0008040eb009d
:10a1e000014878001e0078002020b0008040eb007d
:10a1f000014878009e007800404020000080400028
:10a200008040eb00014878009e007800504020001c
:10a21000008040008040eb00014878009e007800fc
:10a2200060402000008040008040eb000148780042
:10a2300021e2a80021a2a9002182a9002162a80090
:10a2400001118000f0cf2f00008060000011880015
:10a2500020e2a90020c2a90020a2a9002082a90012
:10a260002062a8000111800090ff2f000080600094
:10a27000001188002002a90023c2a9002362a900be
:10a280002322a9002302a90022a2a9002282a90058
:10a290002262a9002242a9002222a90041058000d1
:10a2a000f0ff28000080600000e0a000400588006a
:10a2b0005105800080ff2f00008060000020a0007a
:10a2c0005005880022e2a90022c2a90023e2a900c9
:10a2d00023a2a9008580a9008560a9002342a800c7
:10a2e0002174200052042000730520008248780069
:10a2f0008348780042c7a9002135800000fe2f0066
:10a30000008060007000b300203588004136800076
:10a3100000fe2f00008060003000b300403688004f
:10a320002174200052042000730520008248780028
:10a330008348780042c7a8000080eb0060198800bd
:10a34000608020000080fa00000006000200fa0091
:10a35000000f7800001020000080fa0000000600c6
:10a360000200fa00000f7800001020000080fa00c0
:10a37000000006000200fa00000f78009e0078003e
:10a380006040200000804000104078000080fb000a
:10a390000080fa00000006000200fa00000f7800ba
:10a3a0001e0078002020b000104078000080fb00e4
:10a3b0000080fa00000006000200fa00000f78009a
:10a3c0001e0078002020b000104078000080fb00c4
:10a3d00001102000008050000080fa0000000600fc
:10a3e0000400fa00000f7800214798001e00780052
:10a3f0002020b00010407800ff3ffc001e007800d5
:10a400001020b000104078000080fb00ae409000ab
:10a410008180fb001e017800000040000000410028
:10a42000010878001e0078001020b000104078006d
:10a430008040e8001e0078001020b000014878003d
:10a440001e0078001020b000104078001e00780038
:10a450002020b000104078008040e8001e00780006
:10a460002020b000014878000000fc009580a80082
:10a47000a0002000cf0007000080fa0000000600c6
:10a480000400fa0010079800000000009e009000f1
:10a490006040200000804000104078000004e00090
:10a4a000faff3200ff3ffc009e0090004040200079
:10a4b00000804000104078000080fb009e0090006b
:10a4c0002010b0000000400061007800004f7800cc
:10a4d0009e00900040402000008040001040780026
:10a4e0008040e8001e019000404020000000410034
:10a4f000014878009e00900040402000008040000d
:10a50000104078009e0090006040200000804000d5
:10a51000104078008040e9001e019000604020005b
:10a5200000004100014878000000fc001e40780057
:10a530000080fa00000006000600fa0020079800dc
:10a540002e00900060d80700100798000000eb0074
:10a55000000f7800090037002e00900010407800ae
:10a5600080407800104080009dff07001e0fe8002b
:10a570002e0090000000e800200798001e009000c8
:10a580009e007800808f5000f3ff35000080fa00b5
:10a59000000006008600fa00881f7800e003200013
:10a5a000303a8800213a8000f0f32f0000806000ec
:10a5b0000060a000203a8800213a800000fe2f00b1
:10a5c000008060003000b300203a88003200200094
:10a5d00080072000a1092000337420008049780002
:10a5e0008149780082497800103a800000017800a3
:10a5f0000200a000600420007105200023742000e8
:10a600008049780081497800824978000000000084
:10a61000113a8000000027008080600000002300c5
:10a62000808f5000faff3a0000000000113a8000cd
:10a6300000022000008060000000e000fbff32000c
:10a640001ada070002202c0013002000b073280043
:10a65000befe070010408800204080001ad8070086
:10a660000000e800000f78009e0078002040800085
:10a6700001017800800078000000eb002cda070070
:10a680000f007800000478001e0078008000e900c8
:10a69000110798000000e8000000e8000000d10069
:10a6a000800040000f007800818747000000e8002c
:10a6b0000000d10000004000200798001e00780034
:10a6c000000178008000eb002e009000f7d7070013
:10a6d0001e007800000178008000eb002e00900042
:10a6e000f7d907001e00e900ae0090000041eb0022
:10a6f00082707800ae00900066004700811f7800ed
:10a7000021742800811f7800fcd70700e4875700d8
:10a710006600470088ff070040062000250007006c
:08a7200088077800d6ff37001e
:020000040000fa
:10a728001080ba00000006001000ba000000060001
:10a73800801f78000500fc0050052000303b880091
:10a74800a00a2000303b880061e7a8000000000054
:10a758000000000061e7af00feff37004f007800ff
:10a76800000006008088bb00000006008008bb00cf
:04a7780000000600d7
:020000040000fa
:10a77c00f03fb1000180b10006003500ee03090086
:10a78c0000000000403fb1000180b100fbff3d0024
:10a79c001000b000203fb00002003500008009001e
:08a7ac0000000000000006009f
:020000040000fa
:10a7b4000200fa00000f78000400370000e82300cc
:10a7c40001002000ecff07001e0fe9001e007800c6
:10a7d4000000e000f9ff3a000080fa0000000600e3
:020000040000fa
:0200000401f009
:04000c008000000070
:020000040000fa
:0200000401f009
:040010006500000087
:00000001FF
