:020000040000fa
:080000000002040000000000f2
:020000040000fa
:040008008803000069
:020000040000fa
:04000c008803000065
:020000040000fa
:040010008803000061
:020000040000fa
:04001400880300005d
:020000040000fa
:040018008803000059
:020000040000fa
:04001c008803000055
:020000040000fa
:040020008803000051
:020000040000fa
:04002400880300004d
:020000040000fa
:040028008803000049
:020000040000fa
:04002c008803000045
:020000040000fa
:040030008803000041
:020000040000fa
:04003400880300003d
:020000040000fa
:040038008803000039
:020000040000fa
:04003c008803000035
:020000040000fa
:040040008803000031
:020000040000fa
:04004400880300002d
:020000040000fa
:04004800d0020000e2
:020000040000fa
:04004c008803000025
:020000040000fa
:040050008803000021
:020000040000fa
:0400540004030000a1
:020000040000fa
:04005800440300005d
:020000040000fa
:04005c008803000015
:020000040000fa
:040060008803000011
:020000040000fa
:04006400880300000d
:020000040000fa
:040068008803000009
:020000040000fa
:04006c008803000005
:020000040000fa
:040070008803000001
:020000040000fa
:0400740088030000fd
:020000040000fa
:0400780088030000f9
:020000040000fa
:04007c0088030000f5
:020000040000fa
:0400800088030000f1
:020000040000fa
:0400840088030000ed
:020000040000fa
:0400880088030000e9
:020000040000fa
:04008c0088030000e5
:020000040000fa
:0400900088030000e1
:020000040000fa
:0400940088030000dd
:020000040000fa
:0400980088030000d9
:020000040000fa
:04009c0088030000d5
:020000040000fa
:0400a00088030000d1
:020000040000fa
:0400a40088030000cd
:020000040000fa
:0400a80088030000c9
:020000040000fa
:0400ac0088030000c5
:020000040000fa
:0400b00088030000c1
:020000040000fa
:0400b40088030000bd
:020000040000fa
:0400b80088030000b9
:020000040000fa
:0400bc0088030000b5
:020000040000fa
:0400c00088030000b1
:020000040000fa
:0400c40088030000ad
:020000040000fa
:0400c80088030000a9
:020000040000fa
:0400cc0088030000a5
:020000040000fa
:0400d00088030000a1
:020000040000fa
:0400d400880300009d
:020000040000fa
:0400d8008803000099
:020000040000fa
:0400dc008803000095
:020000040000fa
:0400e0008803000091
:020000040000fa
:0400e400880300008d
:020000040000fa
:0400e8008803000089
:020000040000fa
:0400ec008803000085
:020000040000fa
:0400f0008803000081
:020000040000fa
:0400f400880300007d
:020000040000fa
:0400f8008803000079
:020000040000fa
:0400fc008803000075
:020000040000fa
:040100008803000070
:020000040000fa
:04010400880300006c
:020000040000fa
:040108008803000068
:020000040000fa
:04010c008803000064
:020000040000fa
:040110008803000060
:020000040000fa
:04011400880300005c
:020000040000fa
:040118008803000058
:020000040000fa
:04011c008803000054
:020000040000fa
:040120008803000050
:020000040000fa
:04012400880300004c
:020000040000fa
:040128008803000048
:020000040000fa
:04012c008803000044
:020000040000fa
:040130008803000040
:020000040000fa
:04013400880300003c
:020000040000fa
:040138008803000038
:020000040000fa
:04013c008803000034
:020000040000fa
:040140008803000030
:020000040000fa
:04014400880300002c
:020000040000fa
:040148008803000028
:020000040000fa
:04014c008803000024
:020000040000fa
:040150008803000020
:020000040000fa
:04015400880300001c
:020000040000fa
:040158008803000018
:020000040000fa
:04015c008803000014
:020000040000fa
:040160008803000010
:020000040000fa
:04016400880300000c
:020000040000fa
:040208008803000067
:020000040000fa
:04020c008803000063
:020000040000fa
:04021000880300005f
:020000040000fa
:04021400880300005b
:020000040000fa
:040218008803000057
:020000040000fa
:04021c008803000053
:020000040000fa
:04022000880300004f
:020000040000fa
:04022400880300004b
:020000040000fa
:040228008803000047
:020000040000fa
:04022c008803000043
:020000040000fa
:04023000880300003f
:020000040000fa
:04023400880300003b
:020000040000fa
:040238008803000037
:020000040000fa
:04023c008803000033
:020000040000fa
:04024000880300002f
:020000040000fa
:04024400880300002b
:020000040000fa
:040248008803000027
:020000040000fa
:04024c008803000023
:020000040000fa
:04025000880300001f
:020000040000fa
:04025400880300001b
:020000040000fa
:040258008803000017
:020000040000fa
:04025c008803000013
:020000040000fa
:04026000880300000f
:020000040000fa
:04026400880300000b
:020000040000fa
:040268008803000007
:020000040000fa
:04026c008803000003
:020000040000fa
:0402700088030000ff
:020000040000fa
:0402740088030000fb
:020000040000fa
:0402780088030000f7
:020000040000fa
:04027c0088030000f3
:020000040000fa
:0402800088030000ef
:020000040000fa
:0402840088030000eb
:020000040000fa
:0402880088030000e7
:020000040000fa
:04028c0088030000e3
:020000040000fa
:0402900088030000df
:020000040000fa
:0402940088030000db
:020000040000fa
:0402980088030000d7
:020000040000fa
:04029c0088030000d3
:020000040000fa
:0402a00088030000cf
:020000040000fa
:0402a40088030000cb
:020000040000fa
:0402a80088030000c7
:020000040000fa
:0402ac0088030000c3
:020000040000fa
:0402b00088030000bf
:020000040000fa
:0402b40088030000bb
:020000040000fa
:0402b80088030000b7
:020000040000fa
:0402bc0088030000b3
:020000040000fa
:0402c00088030000af
:020000040000fa
:0402c40088030000ab
:020000040000fa
:0402c80088030000a7
:020000040000fa
:0402cc0088030000a3
:020000040000fa
:0402d000880300009f
:020000040000fa
:0402d400880300009b
:020000040000fa
:0402d8008803000097
:020000040000fa
:0402dc008803000093
:020000040000fa
:0402e000880300008f
:020000040000fa
:0402e400880300008b
:020000040000fa
:0402e8008803000087
:020000040000fa
:0402ec008803000083
:020000040000fa
:0402f000880300007f
:020000040000fa
:0402f400880300007b
:020000040000fa
:0402f8008803000077
:020000040000fa
:0402fc008803000073
:020000040000fa
:04030000880300006e
:020000040000fa
:04030400880300006a
:020000040000fa
:040308008803000066
:020000040000fa
:04030c008803000062
:020000040000fa
:04031000880300005e
:020000040000fa
:04031400880300005a
:020000040000fa
:040318008803000056
:020000040000fa
:04031c008803000052
:020000040000fa
:04032000880300004e
:020000040000fa
:04032400880300004a
:020000040000fa
:040328008803000046
:020000040000fa
:04032c008803000042
:020000040000fa
:04033000880300003e
:020000040000fa
:04033400880300003a
:020000040000fa
:040338008803000036
:020000040000fa
:04033c008803000032
:020000040000fa
:04034000880300002e
:020000040000fa
:04034400880300002a
:020000040000fa
:040348008803000026
:020000040000fa
:04034c008803000022
:020000040000fa
:04035000880300001e
:020000040000fa
:04035400880300001a
:020000040000fa
:040358008803000016
:020000040000fa
:04035c008803000012
:020000040000fa
:04036000880300000e
:020000040000fa
:04036400880300000a
:020000040000fa
:100400002fc520000e7f24000e0188000000000090
:10041000000020000000e000020032000001200087
:100420002002880014000700bb0007000000e00065
:1004300003003a00e0232100010020000200370001
:100440000000200001002000810f70000100320038
:1004500014000700000020000000e000020032004d
:1004600000000200000000008e11020000000000e9
:100470000040da000000fe004440a90060032000b4
:100480000000e0000300320000002000a00188000e
:100490004440a800000006008a1f78008b1f7800e7
:1004a0000000060091018800800478000000eb0045
:1004b0001a003700e284440032a0b4009905ba0063
:1004c000e284440032a0b4009906ba00e2844400f9
:1004d00032a0b4000006eb00476fde00fd07b2005b
:1004e000636ce10003003a00ebff07000000eb0043
:1004f0000a003700606ce10004003a00005deb0088
:100500008b05e900fdff3e00040037006168e10053
:10051000010032000086eb000b00070019c7ba008b
:100520001905ba000e04e00003003a000a00e000da
:10053000e0ff3a0000000600fe07b2009e018800be
:100540008a047800f5ff3700395dba008b05e900b1
:100550000c003200295dba008b05e900080032006a
:100560000c00e00003003a00e284440032a0b40032
:10057000f5ff370019ddba008b05e900faff3a00f4
:100580008904e800e184440032a0b40000000600c1
:100590007c110400000000000604040000000000bc
:1005a0003600f800809fbe00829fbe00849fbe0080
:1005b000869fbe000000fa008500a9000080200090
:1005c000200090000000e0000500320000802000c4
:1005d000a000900000802000300090000100010089
:1005e000601680000080ea00601688000080fa0033
:1005f0004f03be004f02be004f01be004f00be00c1
:100600003600f90000400600809fbe00821f78007f
:100610000200fa0030118000004f780000c1200075
:1006200010407800f0c02000104078000080fb00ef
:100630009e80fb002010b00000014000a080200040
:100640000000410001087800f0c020001040780050
:100650008040e800f0c0200001487800f0c0200091
:100660001040780000c12000104078008040e80071
:1006700000c12000014878000080fa004f01780096
:100680004f00be0000400600809fbe000000fa0040
:10069000c0a02000104078000004e00002003a00f2
:1006a0009580a90017003700a0a020001040780016
:1006b0000080fb0080004000a080200000804000ff
:1006c0001000780020118800a0a0200010407800c1
:1006d0008040e800a0a0200001487800a0a02000f1
:1006e00010407800c0a02000104078008040e90051
:1006f000c0a0200001487800601680000080ea0059
:10070000601688000080fa004f00be00004006001e
:100710000040da000000fe0000000500839f680032
:100720000100e00002003d0060001000e0801800c1
:100730000300e00002003d0060011100e0811900ab
:10074000050007004f00e00002003b0060001000c1
:10075000e0801800000006006022b80006022000b9
:100760000000d0008180d2000482d2008582d200b5
:100770000000a0000202520083825a0003003100f0
:100780000202420083824a000000a1000603e90041
:10079000f3ff3a00000006008001780002003700f5
:1007a000815978000201e9000200e000fcff3a00f4
:1007b00000000600020037000204e0000b003200d7
:1007c000810178000002780030417800b14f51007b
:1007d000f9ff32001000200014427800934f5200bd
:1007e000030031000080eb00000006000000eb0079
:1007f0000000060080007800010178003104e0006c
:10080000fdff3a000000510000000600881f78003c
:100810000204780008017800d601070008004000b3
:100820004f047800000006000000fa00881f7800de
:1008300000047800ea8157003fb9970088007800eb
:1008400060402000070007000000e00002003500c3
:100850008040eb00017478004f0478000080fa00bb
:10086000000006006200fa00889fbe008a1f780020
:100870000005780081047800020478008300780085
:1008800080f92f000f004000b80307009a979f00df
:10089000a9979f000000eb00b09f9f001885fb0008
:1008a0008a04fb000a05ea004f55de0050022000d2
:1008b000808f54000d003200e10f55000b003a000c
:1008c0000a017800880078002f9097009f91970088
:1008d00003000100a0979f000000e0008e0032009e
:1008e0003f9897000000e800b09f9f000a04440072
:1008f00050022000808f5400040032000900e00004
:10090000e6ff3a003f989700840037000000eb00b4
:10091000909f9f00809f9f00f0979f00e0979f000f
:10092000d0979f00c0979f0007003700c1c42000e8
:10093000010050000000400001c420006100780068
:10094000df98970001007000d09f9f008804780016
:1009500009047800384578008a00fb00c0c42000f4
:100960008b0107000000e000f0ff3a00a1c2b300d5
:10097000814f55000e003a00cf8897000180e900b2
:10098000c08f9f0010007800c09f9f000000e00013
:1009900005003d000000ea00c09f9f005f9897009f
:1009a0000020a000d09f9f000904e8000f0037003e
:1009b000c09f9f000000eb0005003700f2ff2700fa
:1009c000820f5000020032006a01b900028040002c
:1009d0000904780088047800b900fb000103b10025
:1009e000e98f5000f5ff3600c09f9f00e0c2b300c2
:1009f000984f1000020032000080eb001900370011
:100a0000a0c2b300d84f100007003a00cf8897006b
:100a10000180e900c08f9f0010007800a09f9f0018
:100a20000804e800100037000000eb00a09f9f00c2
:100a30008800780005003700f3ff2700830f50007f
:100a4000020032006a02b90004004100010478008b
:100a5000880078003101fb000203b100e90f51006a
:100a6000f5ff3600a09f9f00984478008900fb00a6
:100a700080c32000460107000000e00002003200b1
:100a80000804e800010037008044eb00c97f9f00a4
:100a900080c6b30080cf540004003a0098cf140001
:100aa0000a003a006640500006003700c0c6b30096
:100ab00080cf540005003a0098cf140003003a009c
:100ac00065404000c07f9f000804e8001801fb005b
:100ad000e3fb2f008f81410081f92f008f804000c0
:100ae000a0f92f000f004000100007000000e000f8
:100af00009003a00e1fb2f008f804000a0f92f0091
:100b00000f0040005d0207000000e0000200350019
:100b10000804e80061ff37000080eb004f05780013
:100b20004f04be000080fa0000000600889fbe004f
:100b30008a9fbe00e4c6b300844f5100be0032005d
:100b400010003c006b425200844f510018003200ec
:100b500005003c0054c2b300844f5100f60032003f
:100b600084c5b3000f00370044c6b300844f510062
:100b70001400320065424200844f5100f1003a00f7
:100b80001000370004c7b300844f5100dd0032006d
:100b90005600350065424200844f51005300320038
:100ba00063424200844f5100e6003a004f00370094
:100bb0001181e90082087800f0009000124178006d
:100bc000de00370020629000c5c6b300854f52009a
:100bd00007003a009102780064825200840878008d
:100be0001402be004fabde0086037800140037000d
:100bf00015c7b300854f520003003a001104780076
:100c00006802540005003700a5c6b300854f5200a6
:100c100006003a0091047800688254008408780045
:100c20005403be004402be00050037001182e900f3
:100c30008408780014027800cfa2de00612bb9008e
:100c40000498be000690be00a060900088c6b30065
:100c500088cf50000d00320028c6b30088cf500066
:100c600004003a000402fb00cfa2de00612bb900b1
:100c70000800370048c7b30088cf50000300320097
:100c80006644440088cf500004003a00cfa2de0042
:100c9000612bb9000498be000690be003002be0071
:100ca0002003be00f0009000e00f5200e08f5a00d9
:100cb000e00f5b00e08f5b0002003d00d4c2b30098
:100cc00008003700001290000418a3000200320050
:100cd000b4c2b300030037000408a300510032007f
:100ce00004c2b30084f178004c0037002062900009
:100cf000c5c6b300854f520008003a0011057800c0
:100d000064025500840878001404be006055b800e1
:100d10000802be000a03be001400370015c7b30066
:100d2000854f520003003a00910478006882540015
:100d300005003700a5c6b300854f520006003a00f3
:100d40001105780068025500840878005403be003d
:100d50004402be00050037001182e90084087800d3
:100d6000140278008002eb006033b8000498be00e3
:100d70000690be00a060900088c6b30088cf5000e7
:100d80000d00320028c6b30088cf500004003a009e
:100d90000482fb008002eb006033b80008003700db
:100da00048c7b30088cf50000300320066444400b7
:100db00088cf500004003a008002eb006033b80096
:100dc0000498be000690be00801090000138a30079
:100dd000140032003002be002003be00e00f5200bb
:100de000e08f5a00e00f5b00e08f5b000d003200e7
:100df00081c7b300814f51000300320081c5b300a9
:100e0000814f510007003a00f000900004c3b30086
:100e100084f178008100e80082f178008100e80028
:100e200071009800f00090008181410063009800fb
:100e3000824078003e003700a0619000c4c6b30035
:100e40001181e90084cf5100220032000a003c00e9
:100e50006442520084cf51002500320004c2e800f1
:100e600084cf5100130032006842520084cf5100f9
:100e70001e003a000a00370044c7b30084cf510077
:100e80001b0032006642420084cf5100180032003d
:100e90006942520084cf510014003a000500370027
:100ea00082087800920078004058900080487800ce
:100eb0002c0037008208780092007800600a9000c9
:100ec000cfa2de00612bb9008498be008690be00e0
:100ed00024003700820878009200780060099000b2
:100ee000cf91de008288be001e0037001181e9002c
:100ef00082087800920078006008900080087800ee
:100f0000180037001181e900820878001202780089
:100f1000cfa2de00612bb9000498be000690be008f
:100f2000f0009000818141006300980081c7b30008
:100f3000230007000b003700f000900082f17800da
:100f400006003700f0009000818141000204e000bb
:100f500001003a0052c2b300824978008100e800e3
:100f6000710098000000eb004f05be004f04be006a
:100f7000000006008001780002003700b1597800b7
:100f80000201e9000200e000fcff3a000000060058
:100f9000020037000304e000060032000001780080
:100fa00002007800b041780081cf5100f9ff3a008b
:100fb000010037000001eb0002007800000006008d
:100fc000fc874700889fbe008a9fbe008c9fbe00a2
:100fd0008e1f78000006780080c5b30080cf5000d7
:100fe0000a0032007740400080cf50000a003200f3
:100ff0006940400080cf50000b00320070c22000da
:1010000080bf9f00ae0020000a00370062c12000b0
:1010100082bf9f000600370073c2200083bf9f007d
:101020008e0020000300370074c2200084bf9f00a0
:101030000e0120003c02be002c03be000605be00cf
:101040000404be0040c6b30080cf5000030032004d
:101050006540400080cf50000b003a00e00f520086
:10106000e08f5a00e00f5b00e08f5b0006003d0060
:101070006000b8006011b800040450008584580076
:101080000605590087855900e80f57000400320013
:1010900040002000f00f570038003a0001003700f0
:1010a00030002000e00f5400e08f5c00e00f5d0096
:1010b000e08f5d0004003a00dc0890008d01200004
:1010c0000100e000060032008e00e9008880600028
:1010d0008fba9700e5c07800f1ef9f007d012000f6
:1010e000800078008100e900050033008b05d10005
:1010f0000a85d3008984d3000884d300f9ff370020
:10110000089ebe000a96be00120037008d06e90058
:101110008e00e900848060000fb99700e2c178007a
:1011200082fd2f000f01410003f17e008000780056
:101130008100e900050033008783d1000683d300d6
:101140008582d3000482d300f9ff3700049ebe00dd
:101150000696be003c02be002c03be00e00f52000b
:10116000e08f5a00e00f5b00e08f5b008b003400e3
:101170000d00e000e5ff3c00880037002c60900087
:1011800081c6b300814f50000b00320006003c00c6
:101190000004e00008003200e6c05000814f50001b
:1011a0004e003a0004003700c1c6b300814f500022
:1011b0004a003a00210037000800e00004003a002d
:1011c0005c0890008d0120000000e0000600320065
:1011d000110009000e84d8000fb99700e2c0780012
:1011e000f1ef9f007d012000110009000e84d8005e
:1011f0000a003700110009000e04d8008d06e9002e
:101200000e81b900020454008fb8970061417c0040
:1012100081fd2f008f80400082f07e000004780066
:101220000800e000020032000d00e000f1ff3c0089
:10123000cfc4de00614db90025003700e00f540037
:10124000e08f5c0004003a005c0890008d012000f3
:101250000000e000070032006171b9000800be0024
:10126000440107008fb99700e3417800f3ef9f0036
:101270007d0120006171b9000800be0036fd070045
:101280000b0037006171b9000800be0023fd0700a4
:101290008d06e90000f1b900020454000fba97006e
:1012a000e4427c0084fd2f000f02420005f27e0024
:1012b0000004be00e00f5000e08f58000200320032
:1012c0000d00e000efff3c004fcdde008a05780006
:1012d000089ebe000a96be0030003700e00f5400a2
:1012e000e08f5c00e00f5d00e08f5d0004003a00dd
:1012f0005c0890008d0120000000e0000900320031
:101300006172b900612bb9000800be000a01be007d
:10131000bb0107000fba970064427800f4ef9f000a
:101320007d0120006172b900612bb9000800be0088
:101330000a01be00ab0107000d0037006172b90061
:10134000612bb9000800be000a01be00b001070011
:101350008d06e90000f2b900040454008fba97002a
:1013600065427c0085fd2f008f82420084f27e0062
:10137000009ebe000296be003c04be002c05be00ce
:10138000e00f5400e08f5c00e00f5d00e08f5d0037
:10139000020034000d00e000e8ff3c00e80f5700b9
:1013a00010003a000c1090000038a3000d0032002d
:1013b000f78f560006003e0085fd2f008f82420009
:1013c000e5c07e0000c3b30080cf500005003200ae
:1013d0008d06e90002c3b30081fd2f008f8040001d
:1013e00082f07e0078811600120e98006c0090004a
:1013f00083fd2f008f8141008d804100ddfe0700bd
:101400001c089000dc089000810f500006003d0091
:1014100000805000000e98000c1090000040a100c9
:10142000001698000f0037000100e0000d003d009d
:101430008c109000f4806000f08f500009003a009a
:101440007c099000fc009000810051000c09900084
:1014500082805000008050004240a900010034000a
:10146000000e98004f0778004f06be004f05be00e3
:101470004f04be00cf01b100000006000400fa00d6
:10148000889fbe008a9fbe008c1f780000047800f1
:1014900001067800f80d90007800900080855500d6
:1014a0000808900080855500180890008085550038
:1014b00028089000808555003808900080855500e8
:1014c00048089000808555000002220090bf9f00d0
:1014d00000032300a0bf9f00081090000028a30075
:1014e00015003a000b00e000130034000b057800f3
:1014f0008a047800e20f5500010036002900200020
:10150000c801900009017800ee8057005800900053
:1015100003000100500498000000e0008c0032003d
:101520006808900009004000600c9800090555000b
:101530004240a900eeff3c00780190000200e0006c
:101540000c003400c80190008c0078005800900016
:1015500003000100500498008080eb000000e000d0
:101560007c003200e8089000780090000080400085
:10157000600c9800880c90000900e0001100340015
:1015800009057800e28f5400010036002a0020008f
:10159000c80190000a017800ec80570058009000c4
:1015a00003000100500498000000e00068003200d1
:1015b000680890000a004000600c98008a8454007b
:1015c000edff3700180990000200e0000c00340025
:1015d000c8019000e800900058009000030001004e
:1015e000500498008080eb000000e00059003200b9
:1015f000e80890001808900000804000600c9800f7
:10160000a80c90000900e0001100340009057800e2
:10161000e28f5400010036002a002000c80190002b
:101620000a017800ec805700580090000300010088
:10163000500498000000e000450032006808900067
:101640000a004000600c98008a845400edff3700c7
:10165000380990000200e0000e003400e80090001d
:101660001808900080804000c80190005800900049
:1016700003000100500498008080eb000000e000af
:1016800034003200e80890003808900000804000e4
:10169000600c9800c80c90000900e00011003400b4
:1016a00009057800e28f5400010036002a0020006e
:1016b000c80190000a017800ec80570058009000a3
:1016c00003000100500498000000e00020003200f8
:1016d000680890000a004000600c98008a8454005a
:1016e000edff3700081090008000eb000028a300f9
:1016f000180032000b00e000160034008b04780064
:1017000009057800e28f5400010036002a0020000d
:10171000c80190000a017800ee8057005800900040
:1017200003000100500498000000e00008003200af
:10173000680890000a004000600c98008a845400f9
:101740004240a900eeff3c008000eb0001003700a2
:101750008080eb00010078004f0678004f05be0046
:101760004f04be000080fa00000006000108780067
:1017700000000600f8fb07000400be0000000600a1
:10178000889fbe008a9fbe0030044200b0844a0099
:1017900030054b0090854b006000b1000898be00fa
:1017a0000a90be000440e10005c8e10006d0e10057
:1017b00007d8e10002003100680040001008e8008e
:1017c0004f05be004f04be0000000600889fbe000b
:1017d0008a9fbe003004be002005be0004185400dd
:1017e00005985c0006185d0007985d001100200058
:1017f0000440e10005c8e10006d0e10007d8e1009f
:10180000010039008000eb00108810004f05be0079
:101810004f04be00000006001200fa00889fbe00c0
:101820008a9fbe008c9fbe00e0b79f00f1b79f006b
:1018300082bf9f0093bf9f000605be000404be0048
:101840000000eb00d0b79f00c0b79f00b0b79f006b
:10185000a0b79f0090b79f000006eb005fb1970014
:10186000cfb09700820141003fb097000200e00036
:1018700004003d00370007007e805700c0ff0700ce
:1018800003003700330007007e805700cfff0700ba
:10189000dfb697000d00e0000c0035006fb2970036
:1018a000ffb297000fbb97009fbb9700100020006e
:1018b000010020006011b8000002720081827200f5
:1018c00002037300838373001b0007000c06e8000b
:1018d00001042000810f5600e0ff3a000d00e000f7
:1018e00004003d000802be000a03be007e805700cf
:1018f000a3ff07005fa897000000e00005003a0082
:101900001fb29700afb297003fb39700cfb39700d5
:10191000090007006fb09700ffb097000fb997005c
:101920009fb997004f06be004f05be004f04be0092
:101930000080fa0000000600010007000000060019
:10194000a4b79f00b5b79f00c6b79f00d7b79f0049
:10195000000006004f09de0082817100b3b79f00ce
:101960004f01de008180400082807000a1b79f009f
:101970008fb097004f09de000000400002007000a9
:1019800090b79f007fa897004f01de008180400044
:101990008280700081b79f000d0007004f3ade0083
:1019a0000000400004007000f0af9f000800070036
:1019b0000402420085824a0006034b0087834b00e5
:1019c000dfff07000802be000a03be000000060099
:1019d0002fb29700bfb297004fb39700dfb39700c5
:1019e00000000600881f780018002000881f78007b
:1019f00089ff07008f87e9004f0478000000060088
:101a0000801feb0084ff07008f87e90000000600bd
:101a1000889fbe008a9fbe00e00f5000e08f5800f4
:101a2000e00f5900e08f59000c003d006044b80001
:101a30006055b8000000540081805c0002015d0028
:101a400083815d00180020001500070008003d009c
:101a5000180007000004eb00050037000004eb004d
:101a60000f00070002003d001200070018002000d0
:101a7000dcff07000800e000060032006022b8002a
:101a80006033b8000000520081805a0002015b0000
:101a900083815b004f05be004f04be0000000600be
:101aa000e00f5200e08f5a00e00f5b00e08f5b0018
:101ab000000006006044b8006055b80004025400fd
:101ac00085825c0006035d0087835d0000000600e0
:101ad000889fbe008a9fbe008c1f7800e00f5000d8
:101ae000e08f5800e00f5900e08f59000d003d00d5
:101af0006044b8006055b8000000540081805c006c
:101b000002015d0083815d001c0020000820e100cf
:101b100009a8e1000ab0e1000bb8e1000d003d00aa
:101b2000080037000006eb00e00f5200e08f5a007b
:101b3000e00f5b00e08f5b0006003d006044b800f2
:101b40006055b8000402540085825c0006035d0005
:101b500087835d00aaff07000c00e000060032004a
:101b60006022b8006033b8000000520081805a0043
:101b700002015b0083815b004f0678004f05be00c9
:081b80004f04be000000060046
:020000040000fa
:101b880075610000727400005f300000007400008e
:101b9800696d0000657200005f30000000540000ad
:101ba800696300006b3a0000205b000020250000fc
:101bb80030350000645d00000a000000505200004b
:101bc80033200000766100006c750000653a000063
:101bd80020250000640a000000000000746900006d
:0c1be8006d650000725f0000300000001e
:020000040000fa
:101bf4000000fa0040042000401188000080fa0030
:101c0400000006000000fa001002200040118800c5
:101c14000080fa00000006000800fa00100798008f
:101c24002207980033079800a0802000000f780056
:101c34009e007800a0402000008040008000eb005f
:101c4400010878002e009000be00900002102e00c3
:101c540003002000820f5000838f580006003200da
:101c640002202c0013002000820f5000838f5800a4
:101c74000300320004003700ddff070004003700d2
:101c8400e0ff0700020037000000eb0060003700af
:101c94001e0078000020b0008040eb00014878006e
:101ca4001e0078001020b0008040eb00014878004e
:101cb4001e0078002020b0008040eb00014878002e
:101cc4009e00780040402000008040008040eb00ef
:101cd400014878009e0078005040200000804000b9
:101ce4008040eb00014878009e00780060402000ae
:101cf400008040008040eb000148780021e2a80009
:101d040021a2a9002182a9002162a800011180005a
:101d1400f0cf2f00008060000011880020e2a900ad
:101d240020c2a90020a2a9002082a9002062a80044
:101d34000111800090ff2f000080600000118800d6
:101d44002002a90023c2a9002362a9002322a9001a
:101d54002302a90022a2a9002282a9002262a900ca
:101d64002242a9002222a90041058000f0ff280098
:101d74000080600000e0a00040058800510580005c
:101d840080ff2f00008060000020a0005005880024
:101d940022e2a90022c2a90023e2a90023a2a900e9
:101da4008580a9008560a9002342a8002174200031
:101db400520420007305200082487800834878008c
:101dc40042c7a9002135800000fe2f00008060007a
:101dd4007000b300203588004136800000fe2f00db
:101de400008060003000b300403688002174200079
:101df400520420007305200082487800834878004c
:101e040042c7a8000080eb0060198800a080200071
:101e14000080fa00000006000200fa00000f7800bb
:101e2400001020000080fa00000006000200fa0002
:101e3400000f7800001020000080fa000000060067
:101e44000200fa00000f78009e0078006040200035
:101e540000804000104078000080fb000080fa0001
:101e6400000006000200fa00000f78001e0078004f
:101e74002020b000104078000080fb000080fa00b1
:101e8400000006000200fa00000f78001e0078002f
:101e94002020b000104078000080fb0001102000da
:101ea400008050000080fa00000006000400fa00e0
:101eb400000f7800214798001e0078002020b00011
:101ec40010407800ff3ffc001e0078001020b00096
:101ed400104078000080fb00ae4090008180fb0041
:101ee4001e01780000004000000041000108780055
:101ef4001e0078001020b000104078008040e800f8
:101f04001e0078001020b000014878001e00780000
:101f14001020b000104078001e0078002020b0008f
:101f2400104078008040e8001e0078002020b000b7
:101f3400014878000000fc009580a800006420009f
:101f440001002000710107000080fa000000060073
:101f54000400fa0010079800000000009e009000a2
:101f64006040200000804000104078000004e00041
:101f7400faff3200ff3ffc009e009000404020002a
:101f840000804000104078000080fb009e0090001c
:101f94002010b0000000400061007800004f78007d
:101fa4009e009000404020000080400010407800d7
:101fb4008040e8001e0190004040200000004100e5
:101fc400014878009e0090004040200000804000be
:101fd400104078009e009000604020000080400087
:101fe400104078008040e9001e019000604020000d
:101ff40000004100014878000000fc001e40780009
:102004000080fa00000006000200fa0082002000ae
:102014008000eb0000802000def907000000eb00e8
:10202400000f780006003700018020001e007800b1
:102034004300dd00008040001e0878001e0fe80009
:102044001e0078000000e000f7ff34000080fa0072
:10205400000006000a00fa00100798002107980003
:1020640032079800430798000000eb00000f780047
:1020740021df28001e009000cdf907000000e000d9
:1020840010003a0000802000000f78001e00780045
:10209400ae009000110098001e0078008000eb0054
:1020a400010878001e007800be009000210098000e
:1020b4001e007800ce009000310098001e007800c9
:1020c400010037000000eb000080fa000000060069
:1020d4000400fa00100798001e0090006100070039
:1020e400ff3ffc001e009000100f780082002000cb
:1020f4008000eb001e009000a6f907001e0090006f
:102104001e0878000000fc000080fa0000000600b1
:102114000400fa00100798001221ef0091088000d3
:1021240000032000010070009008880090088000df
:102134004400de0063406000804078001e00900090
:102144001000900019000700000f78009e0078002e
:10215400710888004105800080ff2f000080600026
:102164000000a000400588008500a9009500a80093
:1021740013e1a8000080fa00000006000200fa0043
:10218400000f7800ff3ffc001e007800100078006c
:102194000000e00002003a001e007800dcff0700a7
:1021a4000000fc000080fa00000006000800fa00ad
:1021b40020079800614798006e4090000080fb0063
:1021c400e10f50000d003200e10f500003003c000d
:1021d4000000e0000600320011003700e20f50005a
:1021e40009003200e30f50000a0032000c003700ef
:1021f40010002000000f78000c0037008000200041
:10220400000f78000900370000042000000f780058
:102214000600370000102000000f7800030037008c
:1022240010002000000f7800000000001e0078005d
:102234008000eb000001be0000e823000100200044
:1022440035f90700800078002e0090000088b9005e
:1022540000007800100798001e0090000080fa002b
:10226400000006000200fa00000f78001e0078004b
:10227400100078000000e00004003a00ff3ffc007a
:102284009500a9000000fc000100370000000000d8
:102294000080fa00000006000600fa0020079800fb
:1022a4002e00900052f90700100798000000eb0080
:1022b400000f7800090037002e00900010407800cd
:1022c4008040780040408000f8fe07001e0fe800c0
:1022d4002e0090000000e800200798001e009000e7
:1022e4009e007800808f5000f3ff35000080fa00d4
:1022f400000006000400fa00100798009e009000f9
:10230400010f78001e0078001100200001087800f9
:102314000080fa00000006004c00fa00e0032000f0
:10232400303a8800213a8000f0f32f0000806000ea
:102334000060a000203a8800213a800000fe2f00af
:10234400008060003000b300203a88004827ef0086
:102354003200200080072000a109200033742000ef
:10236400804978008149780082497800103a8000d9
:10237400000178000200a000600420007105200024
:1023840023742000804978008149780082497800cc
:1023940000000000113a80000000270080806000e7
:1023a40000002300808f5000faff3a000000000074
:1023b400113a800000022000008060000000e0006c
:1023c400fbff3200c822ef00cc22ef0002202c00d9
:1023d4001300200040dc28000ffe07004040880066
:1023e40009ff07006400470080017800c21721003c
:1023f400411f2000b0dc280016ff070010079800da
:102404001e0090005dff07000000eb00000f780045
:1024140001003700000000002e0090000000e000e2
:10242400fcff32001e0fe800660047009e1f780084
:1024340031dd2800811f7800faf80700e48757008f
:102444006600470094ff0700710880007a00470087
:10245400811f780021de2800811f7800f1f8070031
:10246400e48757007a0047008bff07000000eb0069
:0824740020079800e8ff370083
:020000040000fa
:10247c000008000008000000000000000808000030
:10248c0002000000000000000a0800000c0400001c
:10249c0000000000380c00001a00000002000000d0
:1024ac00686a6c00747a4c000000010000020000a5
:1024bc000400080000100000000020002b2d230059
:1024cc0030000000160c000022000000020000008a
:1024dc003031320033343500363738003941420060
:1024ec004344450046003000313233003435360069
:1024fc0037383900616263006465660000000000d3
:04250c0000000000cb
:020000040000fa
:10251000f03fb1000180b10006003500ee03090074
:1025200000000000403fb1000180b100fbff3d0012
:102530001000b000203fb00002003500008009000c
:0825400000000000000006008d
:020000040000fa
:102548000200fa00000f78000080fa000000060080
:020000040000fa
:0200000401f009
:04000c008000000070
:020000040000fa
:0200000401f009
:040010006500000087
:00000001FF
